{
	"array-contract.sol": {
		"learnArrays": {
			"abi": [
				{
					"inputs": [
						{
							"internalType": "uint256",
							"name": "",
							"type": "uint256"
						}
					],
					"name": "changeArray",
					"outputs": [
						{
							"internalType": "uint256",
							"name": "",
							"type": "uint256"
						}
					],
					"stateMutability": "view",
					"type": "function"
				},
				{
					"inputs": [],
					"name": "getArray",
					"outputs": [
						{
							"internalType": "uint256",
							"name": "",
							"type": "uint256"
						}
					],
					"stateMutability": "view",
					"type": "function"
				},
				{
					"inputs": [],
					"name": "getlength",
					"outputs": [
						{
							"internalType": "uint256",
							"name": "",
							"type": "uint256"
						}
					],
					"stateMutability": "view",
					"type": "function"
				},
				{
					"inputs": [
						{
							"internalType": "uint256",
							"name": "",
							"type": "uint256"
						}
					],
					"name": "myArray",
					"outputs": [
						{
							"internalType": "uint256",
							"name": "",
							"type": "uint256"
						}
					],
					"stateMutability": "view",
					"type": "function"
				},
				{
					"inputs": [
						{
							"internalType": "uint256",
							"name": "",
							"type": "uint256"
						}
					],
					"name": "myArray2",
					"outputs": [
						{
							"internalType": "uint256",
							"name": "",
							"type": "uint256"
						}
					],
					"stateMutability": "view",
					"type": "function"
				},
				{
					"inputs": [
						{
							"internalType": "uint256",
							"name": "",
							"type": "uint256"
						}
					],
					"name": "myFixedSizedArray",
					"outputs": [
						{
							"internalType": "uint256",
							"name": "",
							"type": "uint256"
						}
					],
					"stateMutability": "view",
					"type": "function"
				},
				{
					"inputs": [],
					"name": "pop",
					"outputs": [],
					"stateMutability": "nonpayable",
					"type": "function"
				},
				{
					"inputs": [
						{
							"internalType": "uint256",
							"name": "number",
							"type": "uint256"
						}
					],
					"name": "push",
					"outputs": [],
					"stateMutability": "nonpayable",
					"type": "function"
				},
				{
					"inputs": [
						{
							"internalType": "uint256",
							"name": "i",
							"type": "uint256"
						}
					],
					"name": "remove",
					"outputs": [],
					"stateMutability": "nonpayable",
					"type": "function"
				},
				{
					"inputs": [
						{
							"internalType": "uint256",
							"name": "i",
							"type": "uint256"
						}
					],
					"name": "removeElement",
					"outputs": [],
					"stateMutability": "nonpayable",
					"type": "function"
				},
				{
					"inputs": [],
					"name": "test",
					"outputs": [],
					"stateMutability": "nonpayable",
					"type": "function"
				}
			],
			"devdoc": {
				"kind": "dev",
				"methods": {},
				"version": 1
			},
			"evm": {
				"assembly": "    /* \"array-contract.sol\":412:2173  contract learnArrays {... */\n  mstore(0x40, 0x80)\n  callvalue\n  dup1\n  iszero\n  tag_1\n  jumpi\n  0x00\n  dup1\n  revert\ntag_1:\n  pop\n  dataSize(sub_0)\n  dup1\n  dataOffset(sub_0)\n  0x00\n  codecopy\n  0x00\n  return\nstop\n\nsub_0: assembly {\n        /* \"array-contract.sol\":412:2173  contract learnArrays {... */\n      mstore(0x40, 0x80)\n      callvalue\n      dup1\n      iszero\n      tag_1\n      jumpi\n      0x00\n      dup1\n      revert\n    tag_1:\n      pop\n      jumpi(tag_2, lt(calldatasize, 0x04))\n      shr(0xe0, calldataload(0x00))\n      dup1\n      0x9fc37abf\n      gt\n      tag_14\n      jumpi\n      dup1\n      0x9fc37abf\n      eq\n      tag_8\n      jumpi\n      dup1\n      0xa16d3598\n      eq\n      tag_9\n      jumpi\n      dup1\n      0xa4ece52c\n      eq\n      tag_10\n      jumpi\n      dup1\n      0xcc3e57d9\n      eq\n      tag_11\n      jumpi\n      dup1\n      0xd504ea1d\n      eq\n      tag_12\n      jumpi\n      dup1\n      0xf8a8fd6d\n      eq\n      tag_13\n      jumpi\n      jump(tag_2)\n    tag_14:\n      dup1\n      0x4cc82215\n      eq\n      tag_3\n      jumpi\n      dup1\n      0x6e366c96\n      eq\n      tag_4\n      jumpi\n      dup1\n      0x8c11818a\n      eq\n      tag_5\n      jumpi\n      dup1\n      0x959ac484\n      eq\n      tag_6\n      jumpi\n      dup1\n      0x9c68d20f\n      eq\n      tag_7\n      jumpi\n    tag_2:\n      0x00\n      dup1\n      revert\n        /* \"array-contract.sol\":1093:1265  function remove(uint256 i) public {... */\n    tag_3:\n      tag_15\n      0x04\n      dup1\n      calldatasize\n      sub\n      dup2\n      add\n      swap1\n      tag_16\n      swap2\n      swap1\n      tag_17\n      jump\t// in\n    tag_16:\n      tag_18\n      jump\t// in\n    tag_15:\n      stop\n        /* \"array-contract.sol\":1749:1777  uint256[] public changeArray */\n    tag_4:\n      tag_19\n      0x04\n      dup1\n      calldatasize\n      sub\n      dup2\n      add\n      swap1\n      tag_20\n      swap2\n      swap1\n      tag_17\n      jump\t// in\n    tag_20:\n      tag_21\n      jump\t// in\n    tag_19:\n      mload(0x40)\n      tag_22\n      swap2\n      swap1\n      tag_23\n      jump\t// in\n    tag_22:\n      mload(0x40)\n      dup1\n      swap2\n      sub\n      swap1\n      return\n        /* \"array-contract.sol\":485:510  uint256[] public myArray2 */\n    tag_5:\n      tag_24\n      0x04\n      dup1\n      calldatasize\n      sub\n      dup2\n      add\n      swap1\n      tag_25\n      swap2\n      swap1\n      tag_17\n      jump\t// in\n    tag_25:\n      tag_26\n      jump\t// in\n    tag_24:\n      mload(0x40)\n      tag_27\n      swap2\n      swap1\n      tag_23\n      jump\t// in\n    tag_27:\n      mload(0x40)\n      dup1\n      swap2\n      sub\n      swap1\n      return\n        /* \"array-contract.sol\":676:750  function push(uint256 number) public {... */\n    tag_6:\n      tag_28\n      0x04\n      dup1\n      calldatasize\n      sub\n      dup2\n      add\n      swap1\n      tag_29\n      swap2\n      swap1\n      tag_17\n      jump\t// in\n    tag_29:\n      tag_30\n      jump\t// in\n    tag_28:\n      stop\n        /* \"array-contract.sol\":516:553  uint256[200] public myFixedSizedArray */\n    tag_7:\n      tag_31\n      0x04\n      dup1\n      calldatasize\n      sub\n      dup2\n      add\n      swap1\n      tag_32\n      swap2\n      swap1\n      tag_17\n      jump\t// in\n    tag_32:\n      tag_33\n      jump\t// in\n    tag_31:\n      mload(0x40)\n      tag_34\n      swap2\n      swap1\n      tag_23\n      jump\t// in\n    tag_34:\n      mload(0x40)\n      dup1\n      swap2\n      sub\n      swap1\n      return\n        /* \"array-contract.sol\":1784:1921  function removeElement(uint256 i) public {... */\n    tag_8:\n      tag_35\n      0x04\n      dup1\n      calldatasize\n      sub\n      dup2\n      add\n      swap1\n      tag_36\n      swap2\n      swap1\n      tag_17\n      jump\t// in\n    tag_36:\n      tag_37\n      jump\t// in\n    tag_35:\n      stop\n        /* \"array-contract.sol\":998:1087  function getlength() public view returns (uint256) {... */\n    tag_9:\n      tag_38\n      tag_39\n      jump\t// in\n    tag_38:\n      mload(0x40)\n      tag_40\n      swap2\n      swap1\n      tag_23\n      jump\t// in\n    tag_40:\n      mload(0x40)\n      dup1\n      swap2\n      sub\n      swap1\n      return\n        /* \"array-contract.sol\":855:907  function pop() public {... */\n    tag_10:\n      tag_41\n      tag_42\n      jump\t// in\n    tag_41:\n      stop\n        /* \"array-contract.sol\":439:463  uint256[] public myArray */\n    tag_11:\n      tag_43\n      0x04\n      dup1\n      calldatasize\n      sub\n      dup2\n      add\n      swap1\n      tag_44\n      swap2\n      swap1\n      tag_17\n      jump\t// in\n    tag_44:\n      tag_45\n      jump\t// in\n    tag_43:\n      mload(0x40)\n      tag_46\n      swap2\n      swap1\n      tag_23\n      jump\t// in\n    tag_46:\n      mload(0x40)\n      dup1\n      swap2\n      sub\n      swap1\n      return\n        /* \"array-contract.sol\":2079:2171  function getArray() public view returns (uint256) {... */\n    tag_12:\n      tag_47\n      tag_48\n      jump\t// in\n    tag_47:\n      mload(0x40)\n      tag_49\n      swap2\n      swap1\n      tag_23\n      jump\t// in\n    tag_49:\n      mload(0x40)\n      dup1\n      swap2\n      sub\n      swap1\n      return\n        /* \"array-contract.sol\":1927:2073  function test() public {... */\n    tag_13:\n      tag_50\n      tag_51\n      jump\t// in\n    tag_50:\n      stop\n        /* \"array-contract.sol\":1093:1265  function remove(uint256 i) public {... */\n    tag_18:\n        /* \"array-contract.sol\":1144:1151  myArray */\n      0x00\n        /* \"array-contract.sol\":1152:1153  i */\n      dup2\n        /* \"array-contract.sol\":1144:1154  myArray[i] */\n      dup2\n      sload\n      dup2\n      lt\n      tag_53\n      jumpi\n      tag_54\n      tag_55\n      jump\t// in\n    tag_54:\n    tag_53:\n      swap1\n      0x00\n      mstore\n      keccak256(0x00, 0x20)\n      add\n        /* \"array-contract.sol\":1137:1154  delete myArray[i] */\n      0x00\n      swap1\n      sstore\n        /* \"array-contract.sol\":1093:1265  function remove(uint256 i) public {... */\n      pop\n      jump\t// out\n        /* \"array-contract.sol\":1749:1777  uint256[] public changeArray */\n    tag_21:\n      0xca\n      dup2\n      dup2\n      sload\n      dup2\n      lt\n      tag_57\n      jumpi\n      0x00\n      dup1\n      revert\n    tag_57:\n      swap1\n      0x00\n      mstore\n      keccak256(0x00, 0x20)\n      add\n      0x00\n      swap2\n      pop\n      swap1\n      pop\n      sload\n      dup2\n      jump\t// out\n        /* \"array-contract.sol\":485:510  uint256[] public myArray2 */\n    tag_26:\n      0x01\n      dup2\n      dup2\n      sload\n      dup2\n      lt\n      tag_59\n      jumpi\n      0x00\n      dup1\n      revert\n    tag_59:\n      swap1\n      0x00\n      mstore\n      keccak256(0x00, 0x20)\n      add\n      0x00\n      swap2\n      pop\n      swap1\n      pop\n      sload\n      dup2\n      jump\t// out\n        /* \"array-contract.sol\":676:750  function push(uint256 number) public {... */\n    tag_30:\n        /* \"array-contract.sol\":723:730  myArray */\n      0x00\n        /* \"array-contract.sol\":736:742  number */\n      dup2\n        /* \"array-contract.sol\":723:743  myArray.push(number) */\n      swap1\n      dup1\n      0x01\n      dup2\n      sload\n      add\n      dup1\n      dup3\n      sstore\n      dup1\n      swap2\n      pop\n      pop\n      0x01\n      swap1\n      sub\n      swap1\n      0x00\n      mstore\n      keccak256(0x00, 0x20)\n      add\n      0x00\n      swap1\n      swap2\n      swap1\n      swap2\n      swap1\n      swap2\n      pop\n      sstore\n        /* \"array-contract.sol\":676:750  function push(uint256 number) public {... */\n      pop\n      jump\t// out\n        /* \"array-contract.sol\":516:553  uint256[200] public myFixedSizedArray */\n    tag_33:\n      0x02\n      dup2\n      0xc8\n      dup2\n      lt\n      tag_63\n      jumpi\n      0x00\n      dup1\n      revert\n    tag_63:\n      add\n      0x00\n      swap2\n      pop\n      swap1\n      pop\n      sload\n      dup2\n      jump\t// out\n        /* \"array-contract.sol\":1784:1921  function removeElement(uint256 i) public {... */\n    tag_37:\n        /* \"array-contract.sol\":1852:1863  changeArray */\n      0xca\n        /* \"array-contract.sol\":1885:1886  1 */\n      0x01\n        /* \"array-contract.sol\":1864:1875  changeArray */\n      0xca\n        /* \"array-contract.sol\":1864:1882  changeArray.length */\n      dup1\n      sload\n      swap1\n      pop\n        /* \"array-contract.sol\":1864:1886  changeArray.length - 1 */\n      tag_66\n      swap2\n      swap1\n      tag_67\n      jump\t// in\n    tag_66:\n        /* \"array-contract.sol\":1852:1887  changeArray[changeArray.length - 1] */\n      dup2\n      sload\n      dup2\n      lt\n      tag_68\n      jumpi\n      tag_69\n      tag_55\n      jump\t// in\n    tag_69:\n    tag_68:\n      swap1\n      0x00\n      mstore\n      keccak256(0x00, 0x20)\n      add\n      sload\n        /* \"array-contract.sol\":1835:1846  changeArray */\n      0xca\n        /* \"array-contract.sol\":1847:1848  i */\n      dup3\n        /* \"array-contract.sol\":1835:1849  changeArray[i] */\n      dup2\n      sload\n      dup2\n      lt\n      tag_71\n      jumpi\n      tag_72\n      tag_55\n      jump\t// in\n    tag_72:\n    tag_71:\n      swap1\n      0x00\n      mstore\n      keccak256(0x00, 0x20)\n      add\n        /* \"array-contract.sol\":1835:1887  changeArray[i] = changeArray[changeArray.length - 1] */\n      dup2\n      swap1\n      sstore\n      pop\n        /* \"array-contract.sol\":1897:1908  changeArray */\n      0xca\n        /* \"array-contract.sol\":1897:1914  changeArray.pop() */\n      dup1\n      sload\n      dup1\n      tag_74\n      jumpi\n      tag_75\n      tag_76\n      jump\t// in\n    tag_75:\n    tag_74:\n      0x01\n      swap1\n      sub\n      dup2\n      dup2\n      swap1\n      0x00\n      mstore\n      keccak256(0x00, 0x20)\n      add\n      0x00\n      swap1\n      sstore\n      swap1\n      sstore\n        /* \"array-contract.sol\":1784:1921  function removeElement(uint256 i) public {... */\n      pop\n      jump\t// out\n        /* \"array-contract.sol\":998:1087  function getlength() public view returns (uint256) {... */\n    tag_39:\n        /* \"array-contract.sol\":1040:1047  uint256 */\n      0x00\n        /* \"array-contract.sol\":1066:1073  myArray */\n      dup1\n        /* \"array-contract.sol\":1066:1080  myArray.length */\n      dup1\n      sload\n      swap1\n      pop\n        /* \"array-contract.sol\":1059:1080  return myArray.length */\n      swap1\n      pop\n        /* \"array-contract.sol\":998:1087  function getlength() public view returns (uint256) {... */\n      swap1\n      jump\t// out\n        /* \"array-contract.sol\":855:907  function pop() public {... */\n    tag_42:\n        /* \"array-contract.sol\":887:894  myArray */\n      0x00\n        /* \"array-contract.sol\":887:900  myArray.pop() */\n      dup1\n      sload\n      dup1\n      tag_80\n      jumpi\n      tag_81\n      tag_76\n      jump\t// in\n    tag_81:\n    tag_80:\n      0x01\n      swap1\n      sub\n      dup2\n      dup2\n      swap1\n      0x00\n      mstore\n      keccak256(0x00, 0x20)\n      add\n      0x00\n      swap1\n      sstore\n      swap1\n      sstore\n        /* \"array-contract.sol\":855:907  function pop() public {... */\n      jump\t// out\n        /* \"array-contract.sol\":439:463  uint256[] public myArray */\n    tag_45:\n      0x00\n      dup2\n      dup2\n      sload\n      dup2\n      lt\n      tag_83\n      jumpi\n      0x00\n      dup1\n      revert\n    tag_83:\n      swap1\n      0x00\n      mstore\n      keccak256(0x00, 0x20)\n      add\n      0x00\n      swap2\n      pop\n      swap1\n      pop\n      sload\n      dup2\n      jump\t// out\n        /* \"array-contract.sol\":2079:2171  function getArray() public view returns (uint256) {... */\n    tag_48:\n        /* \"array-contract.sol\":2120:2127  uint256 */\n      0x00\n        /* \"array-contract.sol\":2146:2157  changeArray */\n      0xca\n        /* \"array-contract.sol\":2146:2164  changeArray.length */\n      dup1\n      sload\n      swap1\n      pop\n        /* \"array-contract.sol\":2139:2164  return changeArray.length */\n      swap1\n      pop\n        /* \"array-contract.sol\":2079:2171  function getArray() public view returns (uint256) {... */\n      swap1\n      jump\t// out\n        /* \"array-contract.sol\":1927:2073  function test() public {... */\n    tag_51:\n        /* \"array-contract.sol\":1960:1971  changeArray */\n      0xca\n        /* \"array-contract.sol\":1977:1978  1 */\n      0x01\n        /* \"array-contract.sol\":1960:1979  changeArray.push(1) */\n      swap1\n      dup1\n      0x01\n      dup2\n      sload\n      add\n      dup1\n      dup3\n      sstore\n      dup1\n      swap2\n      pop\n      pop\n      0x01\n      swap1\n      sub\n      swap1\n      0x00\n      mstore\n      keccak256(0x00, 0x20)\n      add\n      0x00\n      swap1\n      swap2\n      swap1\n      swap2\n      swap1\n      swap2\n      pop\n      sstore\n        /* \"array-contract.sol\":1989:2000  changeArray */\n      0xca\n        /* \"array-contract.sol\":2006:2007  2 */\n      0x02\n        /* \"array-contract.sol\":1989:2008  changeArray.push(2) */\n      swap1\n      dup1\n      0x01\n      dup2\n      sload\n      add\n      dup1\n      dup3\n      sstore\n      dup1\n      swap2\n      pop\n      pop\n      0x01\n      swap1\n      sub\n      swap1\n      0x00\n      mstore\n      keccak256(0x00, 0x20)\n      add\n      0x00\n      swap1\n      swap2\n      swap1\n      swap2\n      swap1\n      swap2\n      pop\n      sstore\n        /* \"array-contract.sol\":2018:2029  changeArray */\n      0xca\n        /* \"array-contract.sol\":2035:2036  3 */\n      0x03\n        /* \"array-contract.sol\":2018:2037  changeArray.push(3) */\n      swap1\n      dup1\n      0x01\n      dup2\n      sload\n      add\n      dup1\n      dup3\n      sstore\n      dup1\n      swap2\n      pop\n      pop\n      0x01\n      swap1\n      sub\n      swap1\n      0x00\n      mstore\n      keccak256(0x00, 0x20)\n      add\n      0x00\n      swap1\n      swap2\n      swap1\n      swap2\n      swap1\n      swap2\n      pop\n      sstore\n        /* \"array-contract.sol\":2047:2058  changeArray */\n      0xca\n        /* \"array-contract.sol\":2064:2065  4 */\n      0x04\n        /* \"array-contract.sol\":2047:2066  changeArray.push(4) */\n      swap1\n      dup1\n      0x01\n      dup2\n      sload\n      add\n      dup1\n      dup3\n      sstore\n      dup1\n      swap2\n      pop\n      pop\n      0x01\n      swap1\n      sub\n      swap1\n      0x00\n      mstore\n      keccak256(0x00, 0x20)\n      add\n      0x00\n      swap1\n      swap2\n      swap1\n      swap2\n      swap1\n      swap2\n      pop\n      sstore\n        /* \"array-contract.sol\":1927:2073  function test() public {... */\n      jump\t// out\n        /* \"#utility.yul\":7:146   */\n    tag_92:\n        /* \"#utility.yul\":53:58   */\n      0x00\n        /* \"#utility.yul\":91:97   */\n      dup2\n        /* \"#utility.yul\":78:98   */\n      calldataload\n        /* \"#utility.yul\":69:98   */\n      swap1\n      pop\n        /* \"#utility.yul\":107:140   */\n      tag_94\n        /* \"#utility.yul\":134:139   */\n      dup2\n        /* \"#utility.yul\":107:140   */\n      tag_95\n      jump\t// in\n    tag_94:\n        /* \"#utility.yul\":7:146   */\n      swap3\n      swap2\n      pop\n      pop\n      jump\t// out\n        /* \"#utility.yul\":152:481   */\n    tag_17:\n        /* \"#utility.yul\":211:217   */\n      0x00\n        /* \"#utility.yul\":260:262   */\n      0x20\n        /* \"#utility.yul\":248:257   */\n      dup3\n        /* \"#utility.yul\":239:246   */\n      dup5\n        /* \"#utility.yul\":235:258   */\n      sub\n        /* \"#utility.yul\":231:263   */\n      slt\n        /* \"#utility.yul\":228:347   */\n      iszero\n      tag_97\n      jumpi\n        /* \"#utility.yul\":266:345   */\n      tag_98\n      tag_99\n      jump\t// in\n    tag_98:\n        /* \"#utility.yul\":228:347   */\n    tag_97:\n        /* \"#utility.yul\":386:387   */\n      0x00\n        /* \"#utility.yul\":411:464   */\n      tag_100\n        /* \"#utility.yul\":456:463   */\n      dup5\n        /* \"#utility.yul\":447:453   */\n      dup3\n        /* \"#utility.yul\":436:445   */\n      dup6\n        /* \"#utility.yul\":432:454   */\n      add\n        /* \"#utility.yul\":411:464   */\n      tag_92\n      jump\t// in\n    tag_100:\n        /* \"#utility.yul\":401:464   */\n      swap2\n      pop\n        /* \"#utility.yul\":357:474   */\n      pop\n        /* \"#utility.yul\":152:481   */\n      swap3\n      swap2\n      pop\n      pop\n      jump\t// out\n        /* \"#utility.yul\":487:605   */\n    tag_101:\n        /* \"#utility.yul\":574:598   */\n      tag_103\n        /* \"#utility.yul\":592:597   */\n      dup2\n        /* \"#utility.yul\":574:598   */\n      tag_104\n      jump\t// in\n    tag_103:\n        /* \"#utility.yul\":569:572   */\n      dup3\n        /* \"#utility.yul\":562:599   */\n      mstore\n        /* \"#utility.yul\":487:605   */\n      pop\n      pop\n      jump\t// out\n        /* \"#utility.yul\":611:833   */\n    tag_23:\n        /* \"#utility.yul\":704:708   */\n      0x00\n        /* \"#utility.yul\":742:744   */\n      0x20\n        /* \"#utility.yul\":731:740   */\n      dup3\n        /* \"#utility.yul\":727:745   */\n      add\n        /* \"#utility.yul\":719:745   */\n      swap1\n      pop\n        /* \"#utility.yul\":755:826   */\n      tag_106\n        /* \"#utility.yul\":823:824   */\n      0x00\n        /* \"#utility.yul\":812:821   */\n      dup4\n        /* \"#utility.yul\":808:825   */\n      add\n        /* \"#utility.yul\":799:805   */\n      dup5\n        /* \"#utility.yul\":755:826   */\n      tag_101\n      jump\t// in\n    tag_106:\n        /* \"#utility.yul\":611:833   */\n      swap3\n      swap2\n      pop\n      pop\n      jump\t// out\n        /* \"#utility.yul\":920:1111   */\n    tag_67:\n        /* \"#utility.yul\":960:964   */\n      0x00\n        /* \"#utility.yul\":980:1000   */\n      tag_110\n        /* \"#utility.yul\":998:999   */\n      dup3\n        /* \"#utility.yul\":980:1000   */\n      tag_104\n      jump\t// in\n    tag_110:\n        /* \"#utility.yul\":975:1000   */\n      swap2\n      pop\n        /* \"#utility.yul\":1014:1034   */\n      tag_111\n        /* \"#utility.yul\":1032:1033   */\n      dup4\n        /* \"#utility.yul\":1014:1034   */\n      tag_104\n      jump\t// in\n    tag_111:\n        /* \"#utility.yul\":1009:1034   */\n      swap3\n      pop\n        /* \"#utility.yul\":1053:1054   */\n      dup3\n        /* \"#utility.yul\":1050:1051   */\n      dup3\n        /* \"#utility.yul\":1047:1055   */\n      lt\n        /* \"#utility.yul\":1044:1078   */\n      iszero\n      tag_112\n      jumpi\n        /* \"#utility.yul\":1058:1076   */\n      tag_113\n      tag_114\n      jump\t// in\n    tag_113:\n        /* \"#utility.yul\":1044:1078   */\n    tag_112:\n        /* \"#utility.yul\":1103:1104   */\n      dup3\n        /* \"#utility.yul\":1100:1101   */\n      dup3\n        /* \"#utility.yul\":1096:1105   */\n      sub\n        /* \"#utility.yul\":1088:1105   */\n      swap1\n      pop\n        /* \"#utility.yul\":920:1111   */\n      swap3\n      swap2\n      pop\n      pop\n      jump\t// out\n        /* \"#utility.yul\":1117:1194   */\n    tag_104:\n        /* \"#utility.yul\":1154:1161   */\n      0x00\n        /* \"#utility.yul\":1183:1188   */\n      dup2\n        /* \"#utility.yul\":1172:1188   */\n      swap1\n      pop\n        /* \"#utility.yul\":1117:1194   */\n      swap2\n      swap1\n      pop\n      jump\t// out\n        /* \"#utility.yul\":1200:1380   */\n    tag_114:\n        /* \"#utility.yul\":1248:1325   */\n      0x4e487b7100000000000000000000000000000000000000000000000000000000\n        /* \"#utility.yul\":1245:1246   */\n      0x00\n        /* \"#utility.yul\":1238:1326   */\n      mstore\n        /* \"#utility.yul\":1345:1349   */\n      0x11\n        /* \"#utility.yul\":1342:1343   */\n      0x04\n        /* \"#utility.yul\":1335:1350   */\n      mstore\n        /* \"#utility.yul\":1369:1373   */\n      0x24\n        /* \"#utility.yul\":1366:1367   */\n      0x00\n        /* \"#utility.yul\":1359:1374   */\n      revert\n        /* \"#utility.yul\":1386:1566   */\n    tag_76:\n        /* \"#utility.yul\":1434:1511   */\n      0x4e487b7100000000000000000000000000000000000000000000000000000000\n        /* \"#utility.yul\":1431:1432   */\n      0x00\n        /* \"#utility.yul\":1424:1512   */\n      mstore\n        /* \"#utility.yul\":1531:1535   */\n      0x31\n        /* \"#utility.yul\":1528:1529   */\n      0x04\n        /* \"#utility.yul\":1521:1536   */\n      mstore\n        /* \"#utility.yul\":1555:1559   */\n      0x24\n        /* \"#utility.yul\":1552:1553   */\n      0x00\n        /* \"#utility.yul\":1545:1560   */\n      revert\n        /* \"#utility.yul\":1572:1752   */\n    tag_55:\n        /* \"#utility.yul\":1620:1697   */\n      0x4e487b7100000000000000000000000000000000000000000000000000000000\n        /* \"#utility.yul\":1617:1618   */\n      0x00\n        /* \"#utility.yul\":1610:1698   */\n      mstore\n        /* \"#utility.yul\":1717:1721   */\n      0x32\n        /* \"#utility.yul\":1714:1715   */\n      0x04\n        /* \"#utility.yul\":1707:1722   */\n      mstore\n        /* \"#utility.yul\":1741:1745   */\n      0x24\n        /* \"#utility.yul\":1738:1739   */\n      0x00\n        /* \"#utility.yul\":1731:1746   */\n      revert\n        /* \"#utility.yul\":1881:1998   */\n    tag_99:\n        /* \"#utility.yul\":1990:1991   */\n      0x00\n        /* \"#utility.yul\":1987:1988   */\n      dup1\n        /* \"#utility.yul\":1980:1992   */\n      revert\n        /* \"#utility.yul\":2004:2126   */\n    tag_95:\n        /* \"#utility.yul\":2077:2101   */\n      tag_123\n        /* \"#utility.yul\":2095:2100   */\n      dup2\n        /* \"#utility.yul\":2077:2101   */\n      tag_104\n      jump\t// in\n    tag_123:\n        /* \"#utility.yul\":2070:2075   */\n      dup2\n        /* \"#utility.yul\":2067:2102   */\n      eq\n        /* \"#utility.yul\":2057:2120   */\n      tag_124\n      jumpi\n        /* \"#utility.yul\":2116:2117   */\n      0x00\n        /* \"#utility.yul\":2113:2114   */\n      dup1\n        /* \"#utility.yul\":2106:2118   */\n      revert\n        /* \"#utility.yul\":2057:2120   */\n    tag_124:\n        /* \"#utility.yul\":2004:2126   */\n      pop\n      jump\t// out\n\n    auxdata: 0xa26469706673582212202b87c81468552bc02b76cbe19f0c09d27b33078ab0abb69193b9a4b470a295cb64736f6c63430008070033\n}\n",
				"bytecode": {
					"linkReferences": {},
					"object": "608060405234801561001057600080fd5b506105dd806100206000396000f3fe608060405234801561001057600080fd5b50600436106100a95760003560e01c80639fc37abf116100715780639fc37abf14610176578063a16d359814610192578063a4ece52c146101b0578063cc3e57d9146101ba578063d504ea1d146101ea578063f8a8fd6d14610208576100a9565b80634cc82215146100ae5780636e366c96146100ca5780638c11818a146100fa578063959ac4841461012a5780639c68d20f14610146575b600080fd5b6100c860048036038101906100c39190610469565b610212565b005b6100e460048036038101906100df9190610469565b610237565b6040516100f191906104a5565b60405180910390f35b610114600480360381019061010f9190610469565b61025b565b60405161012191906104a5565b60405180910390f35b610144600480360381019061013f9190610469565b61027f565b005b610160600480360381019061015b9190610469565b6102ab565b60405161016d91906104a5565b60405180910390f35b610190600480360381019061018b9190610469565b6102c6565b005b61019a610343565b6040516101a791906104a5565b60405180910390f35b6101b861034f565b005b6101d460048036038101906101cf9190610469565b610379565b6040516101e191906104a5565b60405180910390f35b6101f261039d565b6040516101ff91906104a5565b60405180910390f35b6102106103aa565b005b600081815481106102265761022561055c565b5b906000526020600020016000905550565b60ca818154811061024757600080fd5b906000526020600020016000915090505481565b6001818154811061026b57600080fd5b906000526020600020016000915090505481565b600081908060018154018082558091505060019003906000526020600020016000909190919091505550565b60028160c881106102bb57600080fd5b016000915090505481565b60ca600160ca805490506102da91906104c0565b815481106102eb576102ea61055c565b5b906000526020600020015460ca828154811061030a5761030961055c565b5b906000526020600020018190555060ca80548061032a5761032961052d565b5b6001900381819060005260206000200160009055905550565b60008080549050905090565b60008054806103615761036061052d565b5b60019003818190600052602060002001600090559055565b6000818154811061038957600080fd5b906000526020600020016000915090505481565b600060ca80549050905090565b60ca6001908060018154018082558091505060019003906000526020600020016000909190919091505560ca6002908060018154018082558091505060019003906000526020600020016000909190919091505560ca6003908060018154018082558091505060019003906000526020600020016000909190919091505560ca60049080600181540180825580915050600190039060005260206000200160009091909190915055565b60008135905061046381610590565b92915050565b60006020828403121561047f5761047e61058b565b5b600061048d84828501610454565b91505092915050565b61049f816104f4565b82525050565b60006020820190506104ba6000830184610496565b92915050565b60006104cb826104f4565b91506104d6836104f4565b9250828210156104e9576104e86104fe565b5b828203905092915050565b6000819050919050565b7f4e487b7100000000000000000000000000000000000000000000000000000000600052601160045260246000fd5b7f4e487b7100000000000000000000000000000000000000000000000000000000600052603160045260246000fd5b7f4e487b7100000000000000000000000000000000000000000000000000000000600052603260045260246000fd5b600080fd5b610599816104f4565b81146105a457600080fd5b5056fea26469706673582212202b87c81468552bc02b76cbe19f0c09d27b33078ab0abb69193b9a4b470a295cb64736f6c63430008070033",
					"opcodes": "PUSH1 0x80 PUSH1 0x40 MSTORE CALLVALUE DUP1 ISZERO PUSH2 0x10 JUMPI PUSH1 0x0 DUP1 REVERT JUMPDEST POP PUSH2 0x5DD DUP1 PUSH2 0x20 PUSH1 0x0 CODECOPY PUSH1 0x0 RETURN INVALID PUSH1 0x80 PUSH1 0x40 MSTORE CALLVALUE DUP1 ISZERO PUSH2 0x10 JUMPI PUSH1 0x0 DUP1 REVERT JUMPDEST POP PUSH1 0x4 CALLDATASIZE LT PUSH2 0xA9 JUMPI PUSH1 0x0 CALLDATALOAD PUSH1 0xE0 SHR DUP1 PUSH4 0x9FC37ABF GT PUSH2 0x71 JUMPI DUP1 PUSH4 0x9FC37ABF EQ PUSH2 0x176 JUMPI DUP1 PUSH4 0xA16D3598 EQ PUSH2 0x192 JUMPI DUP1 PUSH4 0xA4ECE52C EQ PUSH2 0x1B0 JUMPI DUP1 PUSH4 0xCC3E57D9 EQ PUSH2 0x1BA JUMPI DUP1 PUSH4 0xD504EA1D EQ PUSH2 0x1EA JUMPI DUP1 PUSH4 0xF8A8FD6D EQ PUSH2 0x208 JUMPI PUSH2 0xA9 JUMP JUMPDEST DUP1 PUSH4 0x4CC82215 EQ PUSH2 0xAE JUMPI DUP1 PUSH4 0x6E366C96 EQ PUSH2 0xCA JUMPI DUP1 PUSH4 0x8C11818A EQ PUSH2 0xFA JUMPI DUP1 PUSH4 0x959AC484 EQ PUSH2 0x12A JUMPI DUP1 PUSH4 0x9C68D20F EQ PUSH2 0x146 JUMPI JUMPDEST PUSH1 0x0 DUP1 REVERT JUMPDEST PUSH2 0xC8 PUSH1 0x4 DUP1 CALLDATASIZE SUB DUP2 ADD SWAP1 PUSH2 0xC3 SWAP2 SWAP1 PUSH2 0x469 JUMP JUMPDEST PUSH2 0x212 JUMP JUMPDEST STOP JUMPDEST PUSH2 0xE4 PUSH1 0x4 DUP1 CALLDATASIZE SUB DUP2 ADD SWAP1 PUSH2 0xDF SWAP2 SWAP1 PUSH2 0x469 JUMP JUMPDEST PUSH2 0x237 JUMP JUMPDEST PUSH1 0x40 MLOAD PUSH2 0xF1 SWAP2 SWAP1 PUSH2 0x4A5 JUMP JUMPDEST PUSH1 0x40 MLOAD DUP1 SWAP2 SUB SWAP1 RETURN JUMPDEST PUSH2 0x114 PUSH1 0x4 DUP1 CALLDATASIZE SUB DUP2 ADD SWAP1 PUSH2 0x10F SWAP2 SWAP1 PUSH2 0x469 JUMP JUMPDEST PUSH2 0x25B JUMP JUMPDEST PUSH1 0x40 MLOAD PUSH2 0x121 SWAP2 SWAP1 PUSH2 0x4A5 JUMP JUMPDEST PUSH1 0x40 MLOAD DUP1 SWAP2 SUB SWAP1 RETURN JUMPDEST PUSH2 0x144 PUSH1 0x4 DUP1 CALLDATASIZE SUB DUP2 ADD SWAP1 PUSH2 0x13F SWAP2 SWAP1 PUSH2 0x469 JUMP JUMPDEST PUSH2 0x27F JUMP JUMPDEST STOP JUMPDEST PUSH2 0x160 PUSH1 0x4 DUP1 CALLDATASIZE SUB DUP2 ADD SWAP1 PUSH2 0x15B SWAP2 SWAP1 PUSH2 0x469 JUMP JUMPDEST PUSH2 0x2AB JUMP JUMPDEST PUSH1 0x40 MLOAD PUSH2 0x16D SWAP2 SWAP1 PUSH2 0x4A5 JUMP JUMPDEST PUSH1 0x40 MLOAD DUP1 SWAP2 SUB SWAP1 RETURN JUMPDEST PUSH2 0x190 PUSH1 0x4 DUP1 CALLDATASIZE SUB DUP2 ADD SWAP1 PUSH2 0x18B SWAP2 SWAP1 PUSH2 0x469 JUMP JUMPDEST PUSH2 0x2C6 JUMP JUMPDEST STOP JUMPDEST PUSH2 0x19A PUSH2 0x343 JUMP JUMPDEST PUSH1 0x40 MLOAD PUSH2 0x1A7 SWAP2 SWAP1 PUSH2 0x4A5 JUMP JUMPDEST PUSH1 0x40 MLOAD DUP1 SWAP2 SUB SWAP1 RETURN JUMPDEST PUSH2 0x1B8 PUSH2 0x34F JUMP JUMPDEST STOP JUMPDEST PUSH2 0x1D4 PUSH1 0x4 DUP1 CALLDATASIZE SUB DUP2 ADD SWAP1 PUSH2 0x1CF SWAP2 SWAP1 PUSH2 0x469 JUMP JUMPDEST PUSH2 0x379 JUMP JUMPDEST PUSH1 0x40 MLOAD PUSH2 0x1E1 SWAP2 SWAP1 PUSH2 0x4A5 JUMP JUMPDEST PUSH1 0x40 MLOAD DUP1 SWAP2 SUB SWAP1 RETURN JUMPDEST PUSH2 0x1F2 PUSH2 0x39D JUMP JUMPDEST PUSH1 0x40 MLOAD PUSH2 0x1FF SWAP2 SWAP1 PUSH2 0x4A5 JUMP JUMPDEST PUSH1 0x40 MLOAD DUP1 SWAP2 SUB SWAP1 RETURN JUMPDEST PUSH2 0x210 PUSH2 0x3AA JUMP JUMPDEST STOP JUMPDEST PUSH1 0x0 DUP2 DUP2 SLOAD DUP2 LT PUSH2 0x226 JUMPI PUSH2 0x225 PUSH2 0x55C JUMP JUMPDEST JUMPDEST SWAP1 PUSH1 0x0 MSTORE PUSH1 0x20 PUSH1 0x0 KECCAK256 ADD PUSH1 0x0 SWAP1 SSTORE POP JUMP JUMPDEST PUSH1 0xCA DUP2 DUP2 SLOAD DUP2 LT PUSH2 0x247 JUMPI PUSH1 0x0 DUP1 REVERT JUMPDEST SWAP1 PUSH1 0x0 MSTORE PUSH1 0x20 PUSH1 0x0 KECCAK256 ADD PUSH1 0x0 SWAP2 POP SWAP1 POP SLOAD DUP2 JUMP JUMPDEST PUSH1 0x1 DUP2 DUP2 SLOAD DUP2 LT PUSH2 0x26B JUMPI PUSH1 0x0 DUP1 REVERT JUMPDEST SWAP1 PUSH1 0x0 MSTORE PUSH1 0x20 PUSH1 0x0 KECCAK256 ADD PUSH1 0x0 SWAP2 POP SWAP1 POP SLOAD DUP2 JUMP JUMPDEST PUSH1 0x0 DUP2 SWAP1 DUP1 PUSH1 0x1 DUP2 SLOAD ADD DUP1 DUP3 SSTORE DUP1 SWAP2 POP POP PUSH1 0x1 SWAP1 SUB SWAP1 PUSH1 0x0 MSTORE PUSH1 0x20 PUSH1 0x0 KECCAK256 ADD PUSH1 0x0 SWAP1 SWAP2 SWAP1 SWAP2 SWAP1 SWAP2 POP SSTORE POP JUMP JUMPDEST PUSH1 0x2 DUP2 PUSH1 0xC8 DUP2 LT PUSH2 0x2BB JUMPI PUSH1 0x0 DUP1 REVERT JUMPDEST ADD PUSH1 0x0 SWAP2 POP SWAP1 POP SLOAD DUP2 JUMP JUMPDEST PUSH1 0xCA PUSH1 0x1 PUSH1 0xCA DUP1 SLOAD SWAP1 POP PUSH2 0x2DA SWAP2 SWAP1 PUSH2 0x4C0 JUMP JUMPDEST DUP2 SLOAD DUP2 LT PUSH2 0x2EB JUMPI PUSH2 0x2EA PUSH2 0x55C JUMP JUMPDEST JUMPDEST SWAP1 PUSH1 0x0 MSTORE PUSH1 0x20 PUSH1 0x0 KECCAK256 ADD SLOAD PUSH1 0xCA DUP3 DUP2 SLOAD DUP2 LT PUSH2 0x30A JUMPI PUSH2 0x309 PUSH2 0x55C JUMP JUMPDEST JUMPDEST SWAP1 PUSH1 0x0 MSTORE PUSH1 0x20 PUSH1 0x0 KECCAK256 ADD DUP2 SWAP1 SSTORE POP PUSH1 0xCA DUP1 SLOAD DUP1 PUSH2 0x32A JUMPI PUSH2 0x329 PUSH2 0x52D JUMP JUMPDEST JUMPDEST PUSH1 0x1 SWAP1 SUB DUP2 DUP2 SWAP1 PUSH1 0x0 MSTORE PUSH1 0x20 PUSH1 0x0 KECCAK256 ADD PUSH1 0x0 SWAP1 SSTORE SWAP1 SSTORE POP JUMP JUMPDEST PUSH1 0x0 DUP1 DUP1 SLOAD SWAP1 POP SWAP1 POP SWAP1 JUMP JUMPDEST PUSH1 0x0 DUP1 SLOAD DUP1 PUSH2 0x361 JUMPI PUSH2 0x360 PUSH2 0x52D JUMP JUMPDEST JUMPDEST PUSH1 0x1 SWAP1 SUB DUP2 DUP2 SWAP1 PUSH1 0x0 MSTORE PUSH1 0x20 PUSH1 0x0 KECCAK256 ADD PUSH1 0x0 SWAP1 SSTORE SWAP1 SSTORE JUMP JUMPDEST PUSH1 0x0 DUP2 DUP2 SLOAD DUP2 LT PUSH2 0x389 JUMPI PUSH1 0x0 DUP1 REVERT JUMPDEST SWAP1 PUSH1 0x0 MSTORE PUSH1 0x20 PUSH1 0x0 KECCAK256 ADD PUSH1 0x0 SWAP2 POP SWAP1 POP SLOAD DUP2 JUMP JUMPDEST PUSH1 0x0 PUSH1 0xCA DUP1 SLOAD SWAP1 POP SWAP1 POP SWAP1 JUMP JUMPDEST PUSH1 0xCA PUSH1 0x1 SWAP1 DUP1 PUSH1 0x1 DUP2 SLOAD ADD DUP1 DUP3 SSTORE DUP1 SWAP2 POP POP PUSH1 0x1 SWAP1 SUB SWAP1 PUSH1 0x0 MSTORE PUSH1 0x20 PUSH1 0x0 KECCAK256 ADD PUSH1 0x0 SWAP1 SWAP2 SWAP1 SWAP2 SWAP1 SWAP2 POP SSTORE PUSH1 0xCA PUSH1 0x2 SWAP1 DUP1 PUSH1 0x1 DUP2 SLOAD ADD DUP1 DUP3 SSTORE DUP1 SWAP2 POP POP PUSH1 0x1 SWAP1 SUB SWAP1 PUSH1 0x0 MSTORE PUSH1 0x20 PUSH1 0x0 KECCAK256 ADD PUSH1 0x0 SWAP1 SWAP2 SWAP1 SWAP2 SWAP1 SWAP2 POP SSTORE PUSH1 0xCA PUSH1 0x3 SWAP1 DUP1 PUSH1 0x1 DUP2 SLOAD ADD DUP1 DUP3 SSTORE DUP1 SWAP2 POP POP PUSH1 0x1 SWAP1 SUB SWAP1 PUSH1 0x0 MSTORE PUSH1 0x20 PUSH1 0x0 KECCAK256 ADD PUSH1 0x0 SWAP1 SWAP2 SWAP1 SWAP2 SWAP1 SWAP2 POP SSTORE PUSH1 0xCA PUSH1 0x4 SWAP1 DUP1 PUSH1 0x1 DUP2 SLOAD ADD DUP1 DUP3 SSTORE DUP1 SWAP2 POP POP PUSH1 0x1 SWAP1 SUB SWAP1 PUSH1 0x0 MSTORE PUSH1 0x20 PUSH1 0x0 KECCAK256 ADD PUSH1 0x0 SWAP1 SWAP2 SWAP1 SWAP2 SWAP1 SWAP2 POP SSTORE JUMP JUMPDEST PUSH1 0x0 DUP2 CALLDATALOAD SWAP1 POP PUSH2 0x463 DUP2 PUSH2 0x590 JUMP JUMPDEST SWAP3 SWAP2 POP POP JUMP JUMPDEST PUSH1 0x0 PUSH1 0x20 DUP3 DUP5 SUB SLT ISZERO PUSH2 0x47F JUMPI PUSH2 0x47E PUSH2 0x58B JUMP JUMPDEST JUMPDEST PUSH1 0x0 PUSH2 0x48D DUP5 DUP3 DUP6 ADD PUSH2 0x454 JUMP JUMPDEST SWAP2 POP POP SWAP3 SWAP2 POP POP JUMP JUMPDEST PUSH2 0x49F DUP2 PUSH2 0x4F4 JUMP JUMPDEST DUP3 MSTORE POP POP JUMP JUMPDEST PUSH1 0x0 PUSH1 0x20 DUP3 ADD SWAP1 POP PUSH2 0x4BA PUSH1 0x0 DUP4 ADD DUP5 PUSH2 0x496 JUMP JUMPDEST SWAP3 SWAP2 POP POP JUMP JUMPDEST PUSH1 0x0 PUSH2 0x4CB DUP3 PUSH2 0x4F4 JUMP JUMPDEST SWAP2 POP PUSH2 0x4D6 DUP4 PUSH2 0x4F4 JUMP JUMPDEST SWAP3 POP DUP3 DUP3 LT ISZERO PUSH2 0x4E9 JUMPI PUSH2 0x4E8 PUSH2 0x4FE JUMP JUMPDEST JUMPDEST DUP3 DUP3 SUB SWAP1 POP SWAP3 SWAP2 POP POP JUMP JUMPDEST PUSH1 0x0 DUP2 SWAP1 POP SWAP2 SWAP1 POP JUMP JUMPDEST PUSH32 0x4E487B7100000000000000000000000000000000000000000000000000000000 PUSH1 0x0 MSTORE PUSH1 0x11 PUSH1 0x4 MSTORE PUSH1 0x24 PUSH1 0x0 REVERT JUMPDEST PUSH32 0x4E487B7100000000000000000000000000000000000000000000000000000000 PUSH1 0x0 MSTORE PUSH1 0x31 PUSH1 0x4 MSTORE PUSH1 0x24 PUSH1 0x0 REVERT JUMPDEST PUSH32 0x4E487B7100000000000000000000000000000000000000000000000000000000 PUSH1 0x0 MSTORE PUSH1 0x32 PUSH1 0x4 MSTORE PUSH1 0x24 PUSH1 0x0 REVERT JUMPDEST PUSH1 0x0 DUP1 REVERT JUMPDEST PUSH2 0x599 DUP2 PUSH2 0x4F4 JUMP JUMPDEST DUP2 EQ PUSH2 0x5A4 JUMPI PUSH1 0x0 DUP1 REVERT JUMPDEST POP JUMP INVALID LOG2 PUSH5 0x6970667358 0x22 SLT KECCAK256 0x2B DUP8 0xC8 EQ PUSH9 0x552BC02B76CBE19F0C MULMOD 0xD2 PUSH28 0x33078AB0ABB69193B9A4B470A295CB64736F6C634300080700330000 "
				},
				"gasEstimates": {
					"creation": {
						"codeDepositCost": "300200",
						"executionCost": "337",
						"totalCost": "300537"
					},
					"external": {
						"changeArray(uint256)": "infinite",
						"getArray()": "2533",
						"getlength()": "2467",
						"myArray(uint256)": "infinite",
						"myArray2(uint256)": "infinite",
						"myFixedSizedArray(uint256)": "infinite",
						"pop()": "29489",
						"push(uint256)": "46896",
						"remove(uint256)": "7596",
						"removeElement(uint256)": "infinite",
						"test()": "185946"
					}
				},
				"methodIdentifiers": {
					"changeArray(uint256)": "6e366c96",
					"getArray()": "d504ea1d",
					"getlength()": "a16d3598",
					"myArray(uint256)": "cc3e57d9",
					"myArray2(uint256)": "8c11818a",
					"myFixedSizedArray(uint256)": "9c68d20f",
					"pop()": "a4ece52c",
					"push(uint256)": "959ac484",
					"remove(uint256)": "4cc82215",
					"removeElement(uint256)": "9fc37abf",
					"test()": "f8a8fd6d"
				}
			},
			"storageLayout": {
				"storage": [
					{
						"astId": 4,
						"contract": "array-contract.sol:learnArrays",
						"label": "myArray",
						"offset": 0,
						"slot": "0",
						"type": "t_array(t_uint256)dyn_storage"
					},
					{
						"astId": 8,
						"contract": "array-contract.sol:learnArrays",
						"label": "myArray2",
						"offset": 0,
						"slot": "1",
						"type": "t_array(t_uint256)dyn_storage"
					},
					{
						"astId": 12,
						"contract": "array-contract.sol:learnArrays",
						"label": "myFixedSizedArray",
						"offset": 0,
						"slot": "2",
						"type": "t_array(t_uint256)200_storage"
					},
					{
						"astId": 56,
						"contract": "array-contract.sol:learnArrays",
						"label": "changeArray",
						"offset": 0,
						"slot": "202",
						"type": "t_array(t_uint256)dyn_storage"
					}
				],
				"types": {
					"t_array(t_uint256)200_storage": {
						"base": "t_uint256",
						"encoding": "inplace",
						"label": "uint256[200]",
						"numberOfBytes": "6400"
					},
					"t_array(t_uint256)dyn_storage": {
						"base": "t_uint256",
						"encoding": "dynamic_array",
						"label": "uint256[]",
						"numberOfBytes": "32"
					},
					"t_uint256": {
						"encoding": "inplace",
						"label": "uint256",
						"numberOfBytes": "32"
					}
				}
			},
			"userdoc": {
				"kind": "user",
				"methods": {
					"myArray2(uint256)": {
						"notice": "add 1 2 3 4"
					}
				},
				"version": 1
			}
		}
	}
}